{
  "_format": "hh-sol-artifact-1",
  "contractName": "PongGame",
  "sourceName": "contracts/PongGame.sol",
  "abi": [
    {
      "inputs": [],
      "stateMutability": "nonpayable",
      "type": "constructor"
    },
    {
      "anonymous": false,
      "inputs": [
        {
          "indexed": true,
          "internalType": "address",
          "name": "player",
          "type": "address"
        },
        {
          "indexed": false,
          "internalType": "uint256",
          "name": "amount",
          "type": "uint256"
        }
      ],
      "name": "BoosterBallsPurchased",
      "type": "event"
    },
    {
      "anonymous": false,
      "inputs": [
        {
          "indexed": true,
          "internalType": "address",
          "name": "player",
          "type": "address"
        },
        {
          "indexed": false,
          "internalType": "uint256",
          "name": "score",
          "type": "uint256"
        },
        {
          "indexed": false,
          "internalType": "uint256",
          "name": "rank",
          "type": "uint256"
        }
      ],
      "name": "LeaderboardUpdated",
      "type": "event"
    },
    {
      "anonymous": false,
      "inputs": [
        {
          "indexed": true,
          "internalType": "address",
          "name": "player",
          "type": "address"
        }
      ],
      "name": "NewPlayerAdded",
      "type": "event"
    },
    {
      "anonymous": false,
      "inputs": [
        {
          "indexed": true,
          "internalType": "address",
          "name": "previousOwner",
          "type": "address"
        },
        {
          "indexed": true,
          "internalType": "address",
          "name": "newOwner",
          "type": "address"
        }
      ],
      "name": "OwnershipTransferred",
      "type": "event"
    },
    {
      "anonymous": false,
      "inputs": [
        {
          "indexed": true,
          "internalType": "address",
          "name": "player",
          "type": "address"
        },
        {
          "indexed": false,
          "internalType": "uint256",
          "name": "newScore",
          "type": "uint256"
        },
        {
          "indexed": false,
          "internalType": "uint256",
          "name": "remainingBoosterBalls",
          "type": "uint256"
        },
        {
          "indexed": false,
          "internalType": "bool",
          "name": "isNewPlayer",
          "type": "bool"
        }
      ],
      "name": "ScoreUpdated",
      "type": "event"
    },
    {
      "anonymous": false,
      "inputs": [
        {
          "indexed": false,
          "internalType": "uint256",
          "name": "tournamentId",
          "type": "uint256"
        },
        {
          "indexed": false,
          "internalType": "uint256",
          "name": "startTime",
          "type": "uint256"
        },
        {
          "indexed": false,
          "internalType": "uint256",
          "name": "endTime",
          "type": "uint256"
        }
      ],
      "name": "TournamentReset",
      "type": "event"
    },
    {
      "inputs": [],
      "name": "BOOSTER_BALL_PACKAGE",
      "outputs": [
        {
          "internalType": "uint256",
          "name": "",
          "type": "uint256"
        }
      ],
      "stateMutability": "view",
      "type": "function"
    },
    {
      "inputs": [],
      "name": "BOOSTER_BALL_PRICE",
      "outputs": [
        {
          "internalType": "uint256",
          "name": "",
          "type": "uint256"
        }
      ],
      "stateMutability": "view",
      "type": "function"
    },
    {
      "inputs": [],
      "name": "MPX_CONVERSION_RATE",
      "outputs": [
        {
          "internalType": "uint256",
          "name": "",
          "type": "uint256"
        }
      ],
      "stateMutability": "view",
      "type": "function"
    },
    {
      "inputs": [],
      "name": "TOURNAMENT_DURATION",
      "outputs": [
        {
          "internalType": "uint256",
          "name": "",
          "type": "uint256"
        }
      ],
      "stateMutability": "view",
      "type": "function"
    },
    {
      "inputs": [],
      "name": "buyBoosterBalls",
      "outputs": [],
      "stateMutability": "payable",
      "type": "function"
    },
    {
      "inputs": [
        {
          "internalType": "address",
          "name": "newServer",
          "type": "address"
        }
      ],
      "name": "changeServer",
      "outputs": [],
      "stateMutability": "nonpayable",
      "type": "function"
    },
    {
      "inputs": [
        {
          "internalType": "address",
          "name": "player",
          "type": "address"
        }
      ],
      "name": "convertScoresToMPX",
      "outputs": [
        {
          "internalType": "uint256",
          "name": "",
          "type": "uint256"
        }
      ],
      "stateMutability": "view",
      "type": "function"
    },
    {
      "inputs": [
        {
          "internalType": "uint256",
          "name": "",
          "type": "uint256"
        }
      ],
      "name": "currentLeaderboardPlayers",
      "outputs": [
        {
          "internalType": "address",
          "name": "",
          "type": "address"
        }
      ],
      "stateMutability": "view",
      "type": "function"
    },
    {
      "inputs": [
        {
          "internalType": "uint256",
          "name": "",
          "type": "uint256"
        }
      ],
      "name": "currentLeaderboardScores",
      "outputs": [
        {
          "internalType": "uint256",
          "name": "",
          "type": "uint256"
        }
      ],
      "stateMutability": "view",
      "type": "function"
    },
    {
      "inputs": [],
      "name": "currentTournamentId",
      "outputs": [
        {
          "internalType": "uint256",
          "name": "",
          "type": "uint256"
        }
      ],
      "stateMutability": "view",
      "type": "function"
    },
    {
      "inputs": [],
      "name": "getAllPlayers",
      "outputs": [
        {
          "internalType": "address[]",
          "name": "addresses",
          "type": "address[]"
        },
        {
          "internalType": "uint256[]",
          "name": "scores",
          "type": "uint256[]"
        }
      ],
      "stateMutability": "view",
      "type": "function"
    },
    {
      "inputs": [],
      "name": "getCurrentLeaderboard",
      "outputs": [
        {
          "internalType": "address[10]",
          "name": "_players",
          "type": "address[10]"
        },
        {
          "internalType": "uint256[10]",
          "name": "_scores",
          "type": "uint256[10]"
        }
      ],
      "stateMutability": "view",
      "type": "function"
    },
    {
      "inputs": [],
      "name": "getCurrentTournamentInfo",
      "outputs": [
        {
          "internalType": "uint256",
          "name": "tournamentId",
          "type": "uint256"
        },
        {
          "internalType": "uint256",
          "name": "startTime",
          "type": "uint256"
        },
        {
          "internalType": "uint256",
          "name": "endTime",
          "type": "uint256"
        },
        {
          "internalType": "uint256",
          "name": "timeRemaining",
          "type": "uint256"
        }
      ],
      "stateMutability": "view",
      "type": "function"
    },
    {
      "inputs": [
        {
          "internalType": "address",
          "name": "player",
          "type": "address"
        }
      ],
      "name": "getPlayerStats",
      "outputs": [
        {
          "internalType": "uint256",
          "name": "score",
          "type": "uint256"
        },
        {
          "internalType": "uint256",
          "name": "boosterBalls",
          "type": "uint256"
        },
        {
          "internalType": "bool",
          "name": "isActive",
          "type": "bool"
        }
      ],
      "stateMutability": "view",
      "type": "function"
    },
    {
      "inputs": [
        {
          "internalType": "uint256",
          "name": "tournamentId",
          "type": "uint256"
        }
      ],
      "name": "getTournamentLeaderboard",
      "outputs": [
        {
          "internalType": "uint256",
          "name": "startTime",
          "type": "uint256"
        },
        {
          "internalType": "uint256",
          "name": "endTime",
          "type": "uint256"
        },
        {
          "internalType": "address[10]",
          "name": "_players",
          "type": "address[10]"
        },
        {
          "internalType": "uint256[10]",
          "name": "_scores",
          "type": "uint256[10]"
        }
      ],
      "stateMutability": "view",
      "type": "function"
    },
    {
      "inputs": [
        {
          "internalType": "uint256",
          "name": "points",
          "type": "uint256"
        },
        {
          "internalType": "uint256",
          "name": "boosterBallsUsed",
          "type": "uint256"
        },
        {
          "internalType": "address",
          "name": "user",
          "type": "address"
        }
      ],
      "name": "incrementScore",
      "outputs": [],
      "stateMutability": "nonpayable",
      "type": "function"
    },
    {
      "inputs": [
        {
          "internalType": "address",
          "name": "player",
          "type": "address"
        }
      ],
      "name": "isEligibleForAirdrop",
      "outputs": [
        {
          "internalType": "bool",
          "name": "isEligible",
          "type": "bool"
        }
      ],
      "stateMutability": "view",
      "type": "function"
    },
    {
      "inputs": [],
      "name": "owner",
      "outputs": [
        {
          "internalType": "address",
          "name": "",
          "type": "address"
        }
      ],
      "stateMutability": "view",
      "type": "function"
    },
    {
      "inputs": [],
      "name": "resetTournament",
      "outputs": [],
      "stateMutability": "nonpayable",
      "type": "function"
    },
    {
      "inputs": [],
      "name": "server",
      "outputs": [
        {
          "internalType": "address",
          "name": "",
          "type": "address"
        }
      ],
      "stateMutability": "view",
      "type": "function"
    },
    {
      "inputs": [],
      "name": "tournamentStartTime",
      "outputs": [
        {
          "internalType": "uint256",
          "name": "",
          "type": "uint256"
        }
      ],
      "stateMutability": "view",
      "type": "function"
    },
    {
      "inputs": [
        {
          "internalType": "uint256",
          "name": "",
          "type": "uint256"
        }
      ],
      "name": "tournaments",
      "outputs": [
        {
          "internalType": "uint256",
          "name": "startTime",
          "type": "uint256"
        },
        {
          "internalType": "uint256",
          "name": "endTime",
          "type": "uint256"
        }
      ],
      "stateMutability": "view",
      "type": "function"
    },
    {
      "inputs": [
        {
          "internalType": "address",
          "name": "newOwner",
          "type": "address"
        }
      ],
      "name": "transferOwnership",
      "outputs": [],
      "stateMutability": "nonpayable",
      "type": "function"
    },
    {
      "inputs": [],
      "name": "withdrawFunds",
      "outputs": [],
      "stateMutability": "nonpayable",
      "type": "function"
    }
  ],
  "bytecode": "0x6080604052348015600f57600080fd5b50336000806101000a81548173ffffffffffffffffffffffffffffffffffffffff021916908373ffffffffffffffffffffffffffffffffffffffff1602179055504260198190555060016018819055506129878061006e6000396000f3fe60806040526004361061014b5760003560e01c80638e7923cb116100b6578063e9d1c5981161006f578063e9d1c598146104a0578063efa1c482146104dd578063f2fde38b14610509578063fc0533e014610532578063fc8e75041461053c578063fd922a42146105675761014b565b80638e7923cb1461038b578063ac67ed29146103b9578063b28f2261146103e4578063c424b3a81461040f578063d13de5cc14610426578063d9e3d106146104635761014b565b806358a5b0f61161010857806358a5b0f6146102665780635bd00f60146102915780637503e1b7146102ce5780637d7461151461030c57806387e93a5a146103375780638da5cb5b146103605761014b565b806308fb8a8814610150578063194d58361461017957806324600fc3146101b957806326af017c146101d0578063491db668146101fb5780634fd66eae14610227575b600080fd5b34801561015c57600080fd5b5061017760048036038101906101729190611ec4565b610592565b005b34801561018557600080fd5b506101a0600480360381019061019b9190611f27565b6107a7565b6040516101b094939291906120b9565b60405180910390f35b3480156101c557600080fd5b506101ce6108f7565b005b3480156101dc57600080fd5b506101e5610a46565b6040516101f29190612100565b60405180910390f35b34801561020757600080fd5b50610210610a52565b60405161021e92919061211b565b60405180910390f35b34801561023357600080fd5b5061024e60048036038101906102499190611ec4565b610b22565b60405161025d93929190612161565b60405180910390f35b34801561027257600080fd5b5061027b610bc0565b6040516102889190612100565b60405180910390f35b34801561029d57600080fd5b506102b860048036038101906102b39190611f27565b610bc6565b6040516102c591906121a7565b60405180910390f35b3480156102da57600080fd5b506102f560048036038101906102f09190611f27565b610bfc565b6040516103039291906121c2565b60405180910390f35b34801561031857600080fd5b50610321610c20565b60405161032e9190612100565b60405180910390f35b34801561034357600080fd5b5061035e600480360381019061035991906121eb565b610c27565b005b34801561036c57600080fd5b50610375611026565b60405161038291906121a7565b60405180910390f35b34801561039757600080fd5b506103a061104a565b6040516103b0949392919061223e565b60405180910390f35b3480156103c557600080fd5b506103ce61109d565b6040516103db9190612100565b60405180910390f35b3480156103f057600080fd5b506103f96110a2565b6040516104069190612100565b60405180910390f35b34801561041b57600080fd5b506104246110a8565b005b34801561043257600080fd5b5061044d60048036038101906104489190611f27565b611302565b60405161045a9190612100565b60405180910390f35b34801561046f57600080fd5b5061048a60048036038101906104859190611ec4565b61131d565b6040516104979190612100565b60405180910390f35b3480156104ac57600080fd5b506104c760048036038101906104c29190611ec4565b61145d565b6040516104d49190612283565b60405180910390f35b3480156104e957600080fd5b506104f2611505565b6040516105009291906123cc565b60405180910390f35b34801561051557600080fd5b50610530600480360381019061052b9190611ec4565b6117ed565b005b61053a6119ff565b005b34801561054857600080fd5b50610551611af4565b60405161055e9190612100565b60405180910390f35b34801561057357600080fd5b5061057c611afa565b60405161058991906121a7565b60405180910390f35b60008054906101000a900473ffffffffffffffffffffffffffffffffffffffff1673ffffffffffffffffffffffffffffffffffffffff163373ffffffffffffffffffffffffffffffffffffffff1614806106395750600160009054906101000a900473ffffffffffffffffffffffffffffffffffffffff1673ffffffffffffffffffffffffffffffffffffffff163373ffffffffffffffffffffffffffffffffffffffff16145b610678576040517f08c379a000000000000000000000000000000000000000000000000000000000815260040161066f90612486565b60405180910390fd5b600073ffffffffffffffffffffffffffffffffffffffff168173ffffffffffffffffffffffffffffffffffffffff16036106e7576040517f08c379a00000000000000000000000000000000000000000000000000000000081526004016106de90612518565b60405180910390fd5b8073ffffffffffffffffffffffffffffffffffffffff16600160009054906101000a900473ffffffffffffffffffffffffffffffffffffffff1673ffffffffffffffffffffffffffffffffffffffff167f8be0079c531659141344cd1fd0a4f28419497f9722a3daafe3b4186f6b6457e060405160405180910390a380600160006101000a81548173ffffffffffffffffffffffffffffffffffffffff021916908373ffffffffffffffffffffffffffffffffffffffff16021790555050565b6000806107b2611e1b565b6107ba611e3e565b6000851180156107cb575060185485105b61080a576040517f08c379a000000000000000000000000000000000000000000000000000000000815260040161080190612584565b60405180910390fd5b6000601760008781526020019081526020016000209050806000015481600101548260020183600c0181600a806020026040519081016040528092919082600a80156108a1576020028201915b8160009054906101000a900473ffffffffffffffffffffffffffffffffffffffff1673ffffffffffffffffffffffffffffffffffffffff1681526020019060010190808311610857575b5050505050915080600a806020026040519081016040528092919082600a80156108e0576020028201915b8154815260200190600101908083116108cc575b505050505090509450945094509450509193509193565b60008054906101000a900473ffffffffffffffffffffffffffffffffffffffff1673ffffffffffffffffffffffffffffffffffffffff163373ffffffffffffffffffffffffffffffffffffffff16148061099e5750600160009054906101000a900473ffffffffffffffffffffffffffffffffffffffff1673ffffffffffffffffffffffffffffffffffffffff163373ffffffffffffffffffffffffffffffffffffffff16145b6109dd576040517f08c379a00000000000000000000000000000000000000000000000000000000081526004016109d490612486565b60405180910390fd5b60008054906101000a900473ffffffffffffffffffffffffffffffffffffffff1673ffffffffffffffffffffffffffffffffffffffff166108fc479081150290604051600060405180830381858888f19350505050158015610a43573d6000803e3d6000fd5b50565b678ac7230489e8000081565b610a5a611e1b565b610a62611e3e565b6003600d81600a806020026040519081016040528092919082600a8015610ad4576020028201915b8160009054906101000a900473ffffffffffffffffffffffffffffffffffffffff1673ffffffffffffffffffffffffffffffffffffffff1681526020019060010190808311610a8a575b5050505050915080600a806020026040519081016040528092919082600a8015610b13576020028201915b815481526020019060010190808311610aff575b50505050509050915091509091565b600080600080600260008673ffffffffffffffffffffffffffffffffffffffff1673ffffffffffffffffffffffffffffffffffffffff16815260200190815260200160002060405180606001604052908160008201548152602001600182015481526020016002820160009054906101000a900460ff1615151515815250509050806000015181602001518260400151935093509350509193909250565b60195481565b600381600a8110610bd657600080fd5b016000915054906101000a900473ffffffffffffffffffffffffffffffffffffffff1681565b60176020528060005260406000206000915090508060000154908060010154905082565b62278d0081565b60008311610c6a576040517f08c379a0000000000000000000000000000000000000000000000000000000008152600401610c61906125f0565b60405180910390fd5b600260008273ffffffffffffffffffffffffffffffffffffffff1673ffffffffffffffffffffffffffffffffffffffff16815260200190815260200160002060010154821115610cef576040517f08c379a0000000000000000000000000000000000000000000000000000000008152600401610ce69061265c565b60405180910390fd5b6000600260008373ffffffffffffffffffffffffffffffffffffffff1673ffffffffffffffffffffffffffffffffffffffff16815260200190815260200160002060020160009054906101000a900460ff161590508015610df157601a829080600181540180825580915050600190039060005260206000200160009091909190916101000a81548173ffffffffffffffffffffffffffffffffffffffff021916908373ffffffffffffffffffffffffffffffffffffffff1602179055508173ffffffffffffffffffffffffffffffffffffffff167f990fdab3aebd00c32252360817f4b2b7b7268c19e89b29f1229118e51f8aca1060405160405180910390a25b83600260008473ffffffffffffffffffffffffffffffffffffffff1673ffffffffffffffffffffffffffffffffffffffff1681526020019081526020016000206000016000828254610e4391906126ab565b9250508190555082600260008473ffffffffffffffffffffffffffffffffffffffff1673ffffffffffffffffffffffffffffffffffffffff1681526020019081526020016000206001016000828254610e9c91906126df565b925050819055506001600260008473ffffffffffffffffffffffffffffffffffffffff1673ffffffffffffffffffffffffffffffffffffffff16815260200190815260200160002060020160006101000a81548160ff021916908315150217905550610f4a82600260008573ffffffffffffffffffffffffffffffffffffffff1673ffffffffffffffffffffffffffffffffffffffff16815260200190815260200160002060000154611b20565b8173ffffffffffffffffffffffffffffffffffffffff167f567e350b684cadcffd08a11654f26987d7d19424ceac1209d7b56a5064866a03600260008573ffffffffffffffffffffffffffffffffffffffff1673ffffffffffffffffffffffffffffffffffffffff16815260200190815260200160002060000154600260008673ffffffffffffffffffffffffffffffffffffffff1673ffffffffffffffffffffffffffffffffffffffff168152602001908152602001600020600101548460405161101893929190612161565b60405180910390a250505050565b60008054906101000a900473ffffffffffffffffffffffffffffffffffffffff1681565b600080600080600062278d0060195461106391906126ab565b905060008142101561108057428261107b91906126df565b611083565b60005b905060185460195483839550955095509550505090919293565b606481565b61271081565b60008054906101000a900473ffffffffffffffffffffffffffffffffffffffff1673ffffffffffffffffffffffffffffffffffffffff163373ffffffffffffffffffffffffffffffffffffffff16148061114f5750600160009054906101000a900473ffffffffffffffffffffffffffffffffffffffff1673ffffffffffffffffffffffffffffffffffffffff163373ffffffffffffffffffffffffffffffffffffffff16145b61118e576040517f08c379a000000000000000000000000000000000000000000000000000000000815260040161118590612486565b60405180910390fd5b60006017600060185481526020019081526020016000209050601954816000018190555042816001018190555060005b600a81101561129057600381600a81106111db576111da612713565b5b0160009054906101000a900473ffffffffffffffffffffffffffffffffffffffff168260020182600a811061121357611212612713565b5b0160006101000a81548173ffffffffffffffffffffffffffffffffffffffff021916908373ffffffffffffffffffffffffffffffffffffffff160217905550600d81600a811061126657611265612713565b5b015482600c0182600a811061127e5761127d612713565b5b018190555080806001019150506111be565b50601860008154809291906112a490612742565b9190505550426019819055507f9de3c2ee2e5a2666ea379e937016e2ff9d8107565a7c1add68ade5560ed1e1f860185460195462278d006019546112e891906126ab565b6040516112f79392919061278a565b60405180910390a150565b600d81600a811061131257600080fd5b016000915090505481565b60008060009054906101000a900473ffffffffffffffffffffffffffffffffffffffff1673ffffffffffffffffffffffffffffffffffffffff163373ffffffffffffffffffffffffffffffffffffffff1614806113c75750600160009054906101000a900473ffffffffffffffffffffffffffffffffffffffff1673ffffffffffffffffffffffffffffffffffffffff163373ffffffffffffffffffffffffffffffffffffffff16145b611406576040517f08c379a00000000000000000000000000000000000000000000000000000000081526004016113fd90612486565b60405180910390fd5b612710600260008473ffffffffffffffffffffffffffffffffffffffff1673ffffffffffffffffffffffffffffffffffffffff1681526020019081526020016000206000015461145691906127f0565b9050919050565b6000600260008373ffffffffffffffffffffffffffffffffffffffff1673ffffffffffffffffffffffffffffffffffffffff16815260200190815260200160002060020160009054906101000a900460ff1680156114fe5750612710600260008473ffffffffffffffffffffffffffffffffffffffff1673ffffffffffffffffffffffffffffffffffffffff16815260200190815260200160002060000154115b9050919050565b60608060008054906101000a900473ffffffffffffffffffffffffffffffffffffffff1673ffffffffffffffffffffffffffffffffffffffff163373ffffffffffffffffffffffffffffffffffffffff1614806115af5750600160009054906101000a900473ffffffffffffffffffffffffffffffffffffffff1673ffffffffffffffffffffffffffffffffffffffff163373ffffffffffffffffffffffffffffffffffffffff16145b6115ee576040517f08c379a00000000000000000000000000000000000000000000000000000000081526004016115e590612486565b60405180910390fd5b6000601a8054905090508067ffffffffffffffff81111561161257611611612821565b5b6040519080825280602002602001820160405280156116405781602001602082028036833780820191505090505b5092508067ffffffffffffffff81111561165d5761165c612821565b5b60405190808252806020026020018201604052801561168b5781602001602082028036833780820191505090505b50915060005b818110156117e7576116e0601a82815481106116b0576116af612713565b5b9060005260206000200160009054906101000a900473ffffffffffffffffffffffffffffffffffffffff1661145d565b156117da576000601a82815481106116fb576116fa612713565b5b9060005260206000200160009054906101000a900473ffffffffffffffffffffffffffffffffffffffff1690508085838151811061173c5761173b612713565b5b602002602001019073ffffffffffffffffffffffffffffffffffffffff16908173ffffffffffffffffffffffffffffffffffffffff1681525050600260008273ffffffffffffffffffffffffffffffffffffffff1673ffffffffffffffffffffffffffffffffffffffff168152602001908152602001600020600001548483815181106117cc576117cb612713565b5b602002602001018181525050505b8080600101915050611691565b50509091565b60008054906101000a900473ffffffffffffffffffffffffffffffffffffffff1673ffffffffffffffffffffffffffffffffffffffff163373ffffffffffffffffffffffffffffffffffffffff1614806118945750600160009054906101000a900473ffffffffffffffffffffffffffffffffffffffff1673ffffffffffffffffffffffffffffffffffffffff163373ffffffffffffffffffffffffffffffffffffffff16145b6118d3576040517f08c379a00000000000000000000000000000000000000000000000000000000081526004016118ca90612486565b60405180910390fd5b600073ffffffffffffffffffffffffffffffffffffffff168173ffffffffffffffffffffffffffffffffffffffff1603611942576040517f08c379a00000000000000000000000000000000000000000000000000000000081526004016119399061289c565b60405180910390fd5b8073ffffffffffffffffffffffffffffffffffffffff1660008054906101000a900473ffffffffffffffffffffffffffffffffffffffff1673ffffffffffffffffffffffffffffffffffffffff167f8be0079c531659141344cd1fd0a4f28419497f9722a3daafe3b4186f6b6457e060405160405180910390a3806000806101000a81548173ffffffffffffffffffffffffffffffffffffffff021916908373ffffffffffffffffffffffffffffffffffffffff16021790555050565b678ac7230489e800003414611a49576040517f08c379a0000000000000000000000000000000000000000000000000000000008152600401611a4090612908565b60405180910390fd5b6064600260003373ffffffffffffffffffffffffffffffffffffffff1673ffffffffffffffffffffffffffffffffffffffff1681526020019081526020016000206001016000828254611a9c91906126ab565b925050819055503373ffffffffffffffffffffffffffffffffffffffff167f81a735e54eb3172e378aa563cbeef3543b29005a8b4e01bcbe890100eb407f636064604051611aea9190612100565b60405180910390a2565b60185481565b600160009054906101000a900473ffffffffffffffffffffffffffffffffffffffff1681565b6000600a905060005b600a811015611c5a578373ffffffffffffffffffffffffffffffffffffffff16600382600a8110611b5d57611b5c612713565b5b0160009054906101000a900473ffffffffffffffffffffffffffffffffffffffff1673ffffffffffffffffffffffffffffffffffffffff1603611bbc5782600d82600a8110611baf57611bae612713565b5b0181905550809150611c5a565b82600d82600a8110611bd157611bd0612713565b5b01541080611c405750600073ffffffffffffffffffffffffffffffffffffffff16600382600a8110611c0657611c05612713565b5b0160009054906101000a900473ffffffffffffffffffffffffffffffffffffffff1673ffffffffffffffffffffffffffffffffffffffff16145b15611c4d57809150611c5a565b8080600101915050611b29565b50600a811015611e16576000600990505b81811115611d56576003600182611c8291906126df565b600a8110611c9357611c92612713565b5b0160009054906101000a900473ffffffffffffffffffffffffffffffffffffffff16600382600a8110611cc957611cc8612713565b5b0160006101000a81548173ffffffffffffffffffffffffffffffffffffffff021916908373ffffffffffffffffffffffffffffffffffffffff160217905550600d600182611d1791906126df565b600a8110611d2857611d27612713565b5b0154600d82600a8110611d3e57611d3d612713565b5b01819055508080611d4e90612928565b915050611c6b565b5082600382600a8110611d6c57611d6b612713565b5b0160006101000a81548173ffffffffffffffffffffffffffffffffffffffff021916908373ffffffffffffffffffffffffffffffffffffffff16021790555081600d82600a8110611dc057611dbf612713565b5b01819055508273ffffffffffffffffffffffffffffffffffffffff167f5c874adf9d1c93ab636130bb7e727993f1d6a3d33d1ffd925556815d0eec23088383604051611e0d9291906121c2565b60405180910390a25b505050565b604051806101400160405280600a90602082028036833780820191505090505090565b604051806101400160405280600a90602082028036833780820191505090505090565b600080fd5b600073ffffffffffffffffffffffffffffffffffffffff82169050919050565b6000611e9182611e66565b9050919050565b611ea181611e86565b8114611eac57600080fd5b50565b600081359050611ebe81611e98565b92915050565b600060208284031215611eda57611ed9611e61565b5b6000611ee884828501611eaf565b91505092915050565b6000819050919050565b611f0481611ef1565b8114611f0f57600080fd5b50565b600081359050611f2181611efb565b92915050565b600060208284031215611f3d57611f3c611e61565b5b6000611f4b84828501611f12565b91505092915050565b611f5d81611ef1565b82525050565b6000600a9050919050565b600081905092915050565b6000819050919050565b611f8c81611e86565b82525050565b6000611f9e8383611f83565b60208301905092915050565b6000602082019050919050565b611fc081611f63565b611fca8184611f6e565b9250611fd582611f79565b8060005b83811015612006578151611fed8782611f92565b9650611ff883611faa565b925050600181019050611fd9565b505050505050565b6000600a9050919050565b600081905092915050565b6000819050919050565b61203781611ef1565b82525050565b6000612049838361202e565b60208301905092915050565b6000602082019050919050565b61206b8161200e565b6120758184612019565b925061208082612024565b8060005b838110156120b1578151612098878261203d565b96506120a383612055565b925050600181019050612084565b505050505050565b60006102c0820190506120cf6000830187611f54565b6120dc6020830186611f54565b6120e96040830185611fb7565b6120f7610180830184612062565b95945050505050565b60006020820190506121156000830184611f54565b92915050565b6000610280820190506121316000830185611fb7565b61213f610140830184612062565b9392505050565b60008115159050919050565b61215b81612146565b82525050565b60006060820190506121766000830186611f54565b6121836020830185611f54565b6121906040830184612152565b949350505050565b6121a181611e86565b82525050565b60006020820190506121bc6000830184612198565b92915050565b60006040820190506121d76000830185611f54565b6121e46020830184611f54565b9392505050565b60008060006060848603121561220457612203611e61565b5b600061221286828701611f12565b935050602061222386828701611f12565b925050604061223486828701611eaf565b9150509250925092565b60006080820190506122536000830187611f54565b6122606020830186611f54565b61226d6040830185611f54565b61227a6060830184611f54565b95945050505050565b60006020820190506122986000830184612152565b92915050565b600081519050919050565b600082825260208201905092915050565b6000819050602082019050919050565b6000602082019050919050565b60006122e28261229e565b6122ec81856122a9565b93506122f7836122ba565b8060005b8381101561232857815161230f8882611f92565b975061231a836122ca565b9250506001810190506122fb565b5085935050505092915050565b600081519050919050565b600082825260208201905092915050565b6000819050602082019050919050565b6000602082019050919050565b600061237982612335565b6123838185612340565b935061238e83612351565b8060005b838110156123bf5781516123a6888261203d565b97506123b183612361565b925050600181019050612392565b5085935050505092915050565b600060408201905081810360008301526123e681856122d7565b905081810360208301526123fa818461236e565b90509392505050565b600082825260208201905092915050565b7f4f6e6c79206f776e65722f7365727665722063616e2063616c6c20746869732060008201527f66756e6374696f6e000000000000000000000000000000000000000000000000602082015250565b6000612470602883612403565b915061247b82612414565b604082019050919050565b6000602082019050818103600083015261249f81612463565b9050919050565b7f4e6577207365727665722063616e6e6f74206265207a65726f2061646472657360008201527f7300000000000000000000000000000000000000000000000000000000000000602082015250565b6000612502602183612403565b915061250d826124a6565b604082019050919050565b60006020820190508181036000830152612531816124f5565b9050919050565b7f496e76616c696420746f75726e616d656e742049440000000000000000000000600082015250565b600061256e601583612403565b915061257982612538565b602082019050919050565b6000602082019050818103600083015261259d81612561565b9050919050565b7f506f696e7473206d7573742062652067726561746572207468616e2030000000600082015250565b60006125da601d83612403565b91506125e5826125a4565b602082019050919050565b60006020820190508181036000830152612609816125cd565b9050919050565b7f4e6f7420656e6f75676820626f6f737465722062616c6c730000000000000000600082015250565b6000612646601883612403565b915061265182612610565b602082019050919050565b6000602082019050818103600083015261267581612639565b9050919050565b7f4e487b7100000000000000000000000000000000000000000000000000000000600052601160045260246000fd5b60006126b682611ef1565b91506126c183611ef1565b92508282019050808211156126d9576126d861267c565b5b92915050565b60006126ea82611ef1565b91506126f583611ef1565b925082820390508181111561270d5761270c61267c565b5b92915050565b7f4e487b7100000000000000000000000000000000000000000000000000000000600052603260045260246000fd5b600061274d82611ef1565b91507fffffffffffffffffffffffffffffffffffffffffffffffffffffffffffffffff820361277f5761277e61267c565b5b600182019050919050565b600060608201905061279f6000830186611f54565b6127ac6020830185611f54565b6127b96040830184611f54565b949350505050565b7f4e487b7100000000000000000000000000000000000000000000000000000000600052601260045260246000fd5b60006127fb82611ef1565b915061280683611ef1565b925082612816576128156127c1565b5b828204905092915050565b7f4e487b7100000000000000000000000000000000000000000000000000000000600052604160045260246000fd5b7f4e6577206f776e65722063616e6e6f74206265207a65726f2061646472657373600082015250565b6000612886602083612403565b915061289182612850565b602082019050919050565b600060208201905081810360008301526128b581612879565b9050919050565b7f496e636f7272656374207061796d656e7420616d6f756e740000000000000000600082015250565b60006128f2601883612403565b91506128fd826128bc565b602082019050919050565b60006020820190508181036000830152612921816128e5565b9050919050565b600061293382611ef1565b9150600082036129465761294561267c565b5b60018203905091905056fea264697066735822122001f74cda752439558ea3e34aa8e890676cf41d30e815a49c68ca117dffd9f47a64736f6c634300081a0033",
  "linkReferences": {},
  "deployedLinkReferences": {}
}