{
  "_format": "hh-sol-artifact-1",
  "contractName": "PongGame",
  "sourceName": "contracts/PongGame.sol",
  "abi": [
    {
      "inputs": [],
      "stateMutability": "nonpayable",
      "type": "constructor"
    },
    {
      "anonymous": false,
      "inputs": [
        {
          "indexed": true,
          "internalType": "address",
          "name": "player",
          "type": "address"
        },
        {
          "indexed": false,
          "internalType": "uint256",
          "name": "amount",
          "type": "uint256"
        }
      ],
      "name": "BoosterBallsPurchased",
      "type": "event"
    },
    {
      "anonymous": false,
      "inputs": [
        {
          "indexed": true,
          "internalType": "address",
          "name": "player",
          "type": "address"
        },
        {
          "indexed": false,
          "internalType": "uint256",
          "name": "score",
          "type": "uint256"
        },
        {
          "indexed": false,
          "internalType": "uint256",
          "name": "rank",
          "type": "uint256"
        }
      ],
      "name": "LeaderboardUpdated",
      "type": "event"
    },
    {
      "anonymous": false,
      "inputs": [
        {
          "indexed": true,
          "internalType": "address",
          "name": "player",
          "type": "address"
        }
      ],
      "name": "NewPlayerAdded",
      "type": "event"
    },
    {
      "anonymous": false,
      "inputs": [
        {
          "indexed": true,
          "internalType": "address",
          "name": "previousOwner",
          "type": "address"
        },
        {
          "indexed": true,
          "internalType": "address",
          "name": "newOwner",
          "type": "address"
        }
      ],
      "name": "OwnershipTransferred",
      "type": "event"
    },
    {
      "anonymous": false,
      "inputs": [
        {
          "indexed": true,
          "internalType": "address",
          "name": "player",
          "type": "address"
        },
        {
          "indexed": false,
          "internalType": "uint256",
          "name": "newScore",
          "type": "uint256"
        },
        {
          "indexed": false,
          "internalType": "uint256",
          "name": "remainingBoosterBalls",
          "type": "uint256"
        },
        {
          "indexed": false,
          "internalType": "bool",
          "name": "isNewPlayer",
          "type": "bool"
        }
      ],
      "name": "ScoreUpdated",
      "type": "event"
    },
    {
      "anonymous": false,
      "inputs": [
        {
          "indexed": false,
          "internalType": "uint256",
          "name": "tournamentId",
          "type": "uint256"
        },
        {
          "indexed": false,
          "internalType": "uint256",
          "name": "startTime",
          "type": "uint256"
        },
        {
          "indexed": false,
          "internalType": "uint256",
          "name": "endTime",
          "type": "uint256"
        }
      ],
      "name": "TournamentReset",
      "type": "event"
    },
    {
      "inputs": [],
      "name": "BOOSTER_BALL_PACKAGE",
      "outputs": [
        {
          "internalType": "uint256",
          "name": "",
          "type": "uint256"
        }
      ],
      "stateMutability": "view",
      "type": "function"
    },
    {
      "inputs": [],
      "name": "BOOSTER_BALL_PRICE",
      "outputs": [
        {
          "internalType": "uint256",
          "name": "",
          "type": "uint256"
        }
      ],
      "stateMutability": "view",
      "type": "function"
    },
    {
      "inputs": [],
      "name": "MPX_CONVERSION_RATE",
      "outputs": [
        {
          "internalType": "uint256",
          "name": "",
          "type": "uint256"
        }
      ],
      "stateMutability": "view",
      "type": "function"
    },
    {
      "inputs": [],
      "name": "TOURNAMENT_DURATION",
      "outputs": [
        {
          "internalType": "uint256",
          "name": "",
          "type": "uint256"
        }
      ],
      "stateMutability": "view",
      "type": "function"
    },
    {
      "inputs": [],
      "name": "buyBoosterBalls",
      "outputs": [],
      "stateMutability": "payable",
      "type": "function"
    },
    {
      "inputs": [
        {
          "internalType": "address",
          "name": "newServer",
          "type": "address"
        }
      ],
      "name": "changeServer",
      "outputs": [],
      "stateMutability": "nonpayable",
      "type": "function"
    },
    {
      "inputs": [
        {
          "internalType": "address",
          "name": "player",
          "type": "address"
        }
      ],
      "name": "convertScoresToMPX",
      "outputs": [
        {
          "internalType": "uint256",
          "name": "",
          "type": "uint256"
        }
      ],
      "stateMutability": "view",
      "type": "function"
    },
    {
      "inputs": [
        {
          "internalType": "uint256",
          "name": "",
          "type": "uint256"
        }
      ],
      "name": "currentLeaderboardPlayers",
      "outputs": [
        {
          "internalType": "address",
          "name": "",
          "type": "address"
        }
      ],
      "stateMutability": "view",
      "type": "function"
    },
    {
      "inputs": [
        {
          "internalType": "uint256",
          "name": "",
          "type": "uint256"
        }
      ],
      "name": "currentLeaderboardScores",
      "outputs": [
        {
          "internalType": "uint256",
          "name": "",
          "type": "uint256"
        }
      ],
      "stateMutability": "view",
      "type": "function"
    },
    {
      "inputs": [],
      "name": "currentTournamentId",
      "outputs": [
        {
          "internalType": "uint256",
          "name": "",
          "type": "uint256"
        }
      ],
      "stateMutability": "view",
      "type": "function"
    },
    {
      "inputs": [],
      "name": "getAllPlayers",
      "outputs": [
        {
          "internalType": "address[]",
          "name": "addresses",
          "type": "address[]"
        },
        {
          "internalType": "uint256[]",
          "name": "scores",
          "type": "uint256[]"
        }
      ],
      "stateMutability": "view",
      "type": "function"
    },
    {
      "inputs": [],
      "name": "getCurrentLeaderboard",
      "outputs": [
        {
          "internalType": "address[10]",
          "name": "_players",
          "type": "address[10]"
        },
        {
          "internalType": "uint256[10]",
          "name": "_scores",
          "type": "uint256[10]"
        }
      ],
      "stateMutability": "view",
      "type": "function"
    },
    {
      "inputs": [],
      "name": "getCurrentTournamentInfo",
      "outputs": [
        {
          "internalType": "uint256",
          "name": "tournamentId",
          "type": "uint256"
        },
        {
          "internalType": "uint256",
          "name": "startTime",
          "type": "uint256"
        },
        {
          "internalType": "uint256",
          "name": "endTime",
          "type": "uint256"
        },
        {
          "internalType": "uint256",
          "name": "timeRemaining",
          "type": "uint256"
        }
      ],
      "stateMutability": "view",
      "type": "function"
    },
    {
      "inputs": [
        {
          "internalType": "address",
          "name": "player",
          "type": "address"
        }
      ],
      "name": "getPlayerStats",
      "outputs": [
        {
          "internalType": "uint256",
          "name": "score",
          "type": "uint256"
        },
        {
          "internalType": "uint256",
          "name": "boosterBalls",
          "type": "uint256"
        },
        {
          "internalType": "bool",
          "name": "isActive",
          "type": "bool"
        }
      ],
      "stateMutability": "view",
      "type": "function"
    },
    {
      "inputs": [
        {
          "internalType": "uint256",
          "name": "tournamentId",
          "type": "uint256"
        }
      ],
      "name": "getTournamentLeaderboard",
      "outputs": [
        {
          "internalType": "uint256",
          "name": "startTime",
          "type": "uint256"
        },
        {
          "internalType": "uint256",
          "name": "endTime",
          "type": "uint256"
        },
        {
          "internalType": "address[10]",
          "name": "_players",
          "type": "address[10]"
        },
        {
          "internalType": "uint256[10]",
          "name": "_scores",
          "type": "uint256[10]"
        }
      ],
      "stateMutability": "view",
      "type": "function"
    },
    {
      "inputs": [
        {
          "internalType": "uint256",
          "name": "points",
          "type": "uint256"
        },
        {
          "internalType": "uint256",
          "name": "boosterBallsUsed",
          "type": "uint256"
        },
        {
          "internalType": "address",
          "name": "user",
          "type": "address"
        }
      ],
      "name": "incrementScore",
      "outputs": [],
      "stateMutability": "nonpayable",
      "type": "function"
    },
    {
      "inputs": [
        {
          "internalType": "address",
          "name": "player",
          "type": "address"
        }
      ],
      "name": "isEligibleForAirdrop",
      "outputs": [
        {
          "internalType": "bool",
          "name": "isEligible",
          "type": "bool"
        }
      ],
      "stateMutability": "view",
      "type": "function"
    },
    {
      "inputs": [],
      "name": "owner",
      "outputs": [
        {
          "internalType": "address",
          "name": "",
          "type": "address"
        }
      ],
      "stateMutability": "view",
      "type": "function"
    },
    {
      "inputs": [],
      "name": "resetTournament",
      "outputs": [],
      "stateMutability": "nonpayable",
      "type": "function"
    },
    {
      "inputs": [],
      "name": "server",
      "outputs": [
        {
          "internalType": "address",
          "name": "",
          "type": "address"
        }
      ],
      "stateMutability": "view",
      "type": "function"
    },
    {
      "inputs": [],
      "name": "tournamentStartTime",
      "outputs": [
        {
          "internalType": "uint256",
          "name": "",
          "type": "uint256"
        }
      ],
      "stateMutability": "view",
      "type": "function"
    },
    {
      "inputs": [
        {
          "internalType": "uint256",
          "name": "",
          "type": "uint256"
        }
      ],
      "name": "tournaments",
      "outputs": [
        {
          "internalType": "uint256",
          "name": "startTime",
          "type": "uint256"
        },
        {
          "internalType": "uint256",
          "name": "endTime",
          "type": "uint256"
        }
      ],
      "stateMutability": "view",
      "type": "function"
    },
    {
      "inputs": [
        {
          "internalType": "address",
          "name": "newOwner",
          "type": "address"
        }
      ],
      "name": "transferOwnership",
      "outputs": [],
      "stateMutability": "nonpayable",
      "type": "function"
    },
    {
      "inputs": [],
      "name": "withdrawFunds",
      "outputs": [],
      "stateMutability": "nonpayable",
      "type": "function"
    }
  ],
  "bytecode": "0x6080604052348015600f57600080fd5b50336000806101000a81548173ffffffffffffffffffffffffffffffffffffffff021916908373ffffffffffffffffffffffffffffffffffffffff1602179055504260198190555060016018819055506129958061006e6000396000f3fe60806040526004361061014b5760003560e01c80638e7923cb116100b6578063e9d1c5981161006f578063e9d1c598146104a0578063efa1c482146104dd578063f2fde38b14610509578063fc0533e014610532578063fc8e75041461053c578063fd922a42146105675761014b565b80638e7923cb1461038b578063ac67ed29146103b9578063b28f2261146103e4578063c424b3a81461040f578063d13de5cc14610426578063d9e3d106146104635761014b565b806358a5b0f61161010857806358a5b0f6146102665780635bd00f60146102915780637503e1b7146102ce5780637d7461151461030c57806387e93a5a146103375780638da5cb5b146103605761014b565b806308fb8a8814610150578063194d58361461017957806324600fc3146101b957806326af017c146101d0578063491db668146101fb5780634fd66eae14610227575b600080fd5b34801561015c57600080fd5b5061017760048036038101906101729190611ed2565b610592565b005b34801561018557600080fd5b506101a0600480360381019061019b9190611f35565b6107a7565b6040516101b094939291906120c7565b60405180910390f35b3480156101c557600080fd5b506101ce6108f7565b005b3480156101dc57600080fd5b506101e5610a46565b6040516101f2919061210e565b60405180910390f35b34801561020757600080fd5b50610210610a52565b60405161021e929190612129565b60405180910390f35b34801561023357600080fd5b5061024e60048036038101906102499190611ed2565b610b22565b60405161025d9392919061216f565b60405180910390f35b34801561027257600080fd5b5061027b610bc0565b604051610288919061210e565b60405180910390f35b34801561029d57600080fd5b506102b860048036038101906102b39190611f35565b610bc6565b6040516102c591906121b5565b60405180910390f35b3480156102da57600080fd5b506102f560048036038101906102f09190611f35565b610bfc565b6040516103039291906121d0565b60405180910390f35b34801561031857600080fd5b50610321610c20565b60405161032e919061210e565b60405180910390f35b34801561034357600080fd5b5061035e600480360381019061035991906121f9565b610c27565b005b34801561036c57600080fd5b50610375611026565b60405161038291906121b5565b60405180910390f35b34801561039757600080fd5b506103a061104a565b6040516103b0949392919061224c565b60405180910390f35b3480156103c557600080fd5b506103ce61109d565b6040516103db919061210e565b60405180910390f35b3480156103f057600080fd5b506103f96110a2565b604051610406919061210e565b60405180910390f35b34801561041b57600080fd5b506104246110a8565b005b34801561043257600080fd5b5061044d60048036038101906104489190611f35565b611302565b60405161045a919061210e565b60405180910390f35b34801561046f57600080fd5b5061048a60048036038101906104859190611ed2565b61131d565b604051610497919061210e565b60405180910390f35b3480156104ac57600080fd5b506104c760048036038101906104c29190611ed2565b61145d565b6040516104d49190612291565b60405180910390f35b3480156104e957600080fd5b506104f2611513565b6040516105009291906123da565b60405180910390f35b34801561051557600080fd5b50610530600480360381019061052b9190611ed2565b6117fb565b005b61053a611a0d565b005b34801561054857600080fd5b50610551611b02565b60405161055e919061210e565b60405180910390f35b34801561057357600080fd5b5061057c611b08565b60405161058991906121b5565b60405180910390f35b60008054906101000a900473ffffffffffffffffffffffffffffffffffffffff1673ffffffffffffffffffffffffffffffffffffffff163373ffffffffffffffffffffffffffffffffffffffff1614806106395750600160009054906101000a900473ffffffffffffffffffffffffffffffffffffffff1673ffffffffffffffffffffffffffffffffffffffff163373ffffffffffffffffffffffffffffffffffffffff16145b610678576040517f08c379a000000000000000000000000000000000000000000000000000000000815260040161066f90612494565b60405180910390fd5b600073ffffffffffffffffffffffffffffffffffffffff168173ffffffffffffffffffffffffffffffffffffffff16036106e7576040517f08c379a00000000000000000000000000000000000000000000000000000000081526004016106de90612526565b60405180910390fd5b8073ffffffffffffffffffffffffffffffffffffffff16600160009054906101000a900473ffffffffffffffffffffffffffffffffffffffff1673ffffffffffffffffffffffffffffffffffffffff167f8be0079c531659141344cd1fd0a4f28419497f9722a3daafe3b4186f6b6457e060405160405180910390a380600160006101000a81548173ffffffffffffffffffffffffffffffffffffffff021916908373ffffffffffffffffffffffffffffffffffffffff16021790555050565b6000806107b2611e29565b6107ba611e4c565b6000851180156107cb575060185485105b61080a576040517f08c379a000000000000000000000000000000000000000000000000000000000815260040161080190612592565b60405180910390fd5b6000601760008781526020019081526020016000209050806000015481600101548260020183600c0181600a806020026040519081016040528092919082600a80156108a1576020028201915b8160009054906101000a900473ffffffffffffffffffffffffffffffffffffffff1673ffffffffffffffffffffffffffffffffffffffff1681526020019060010190808311610857575b5050505050915080600a806020026040519081016040528092919082600a80156108e0576020028201915b8154815260200190600101908083116108cc575b505050505090509450945094509450509193509193565b60008054906101000a900473ffffffffffffffffffffffffffffffffffffffff1673ffffffffffffffffffffffffffffffffffffffff163373ffffffffffffffffffffffffffffffffffffffff16148061099e5750600160009054906101000a900473ffffffffffffffffffffffffffffffffffffffff1673ffffffffffffffffffffffffffffffffffffffff163373ffffffffffffffffffffffffffffffffffffffff16145b6109dd576040517f08c379a00000000000000000000000000000000000000000000000000000000081526004016109d490612494565b60405180910390fd5b60008054906101000a900473ffffffffffffffffffffffffffffffffffffffff1673ffffffffffffffffffffffffffffffffffffffff166108fc479081150290604051600060405180830381858888f19350505050158015610a43573d6000803e3d6000fd5b50565b678ac7230489e8000081565b610a5a611e29565b610a62611e4c565b6003600d81600a806020026040519081016040528092919082600a8015610ad4576020028201915b8160009054906101000a900473ffffffffffffffffffffffffffffffffffffffff1673ffffffffffffffffffffffffffffffffffffffff1681526020019060010190808311610a8a575b5050505050915080600a806020026040519081016040528092919082600a8015610b13576020028201915b815481526020019060010190808311610aff575b50505050509050915091509091565b600080600080600260008673ffffffffffffffffffffffffffffffffffffffff1673ffffffffffffffffffffffffffffffffffffffff16815260200190815260200160002060405180606001604052908160008201548152602001600182015481526020016002820160009054906101000a900460ff1615151515815250509050806000015181602001518260400151935093509350509193909250565b60195481565b600381600a8110610bd657600080fd5b016000915054906101000a900473ffffffffffffffffffffffffffffffffffffffff1681565b60176020528060005260406000206000915090508060000154908060010154905082565b62278d0081565b60008311610c6a576040517f08c379a0000000000000000000000000000000000000000000000000000000008152600401610c61906125fe565b60405180910390fd5b600260008273ffffffffffffffffffffffffffffffffffffffff1673ffffffffffffffffffffffffffffffffffffffff16815260200190815260200160002060010154821115610cef576040517f08c379a0000000000000000000000000000000000000000000000000000000008152600401610ce69061266a565b60405180910390fd5b6000600260008373ffffffffffffffffffffffffffffffffffffffff1673ffffffffffffffffffffffffffffffffffffffff16815260200190815260200160002060020160009054906101000a900460ff161590508015610df157601a829080600181540180825580915050600190039060005260206000200160009091909190916101000a81548173ffffffffffffffffffffffffffffffffffffffff021916908373ffffffffffffffffffffffffffffffffffffffff1602179055508173ffffffffffffffffffffffffffffffffffffffff167f990fdab3aebd00c32252360817f4b2b7b7268c19e89b29f1229118e51f8aca1060405160405180910390a25b83600260008473ffffffffffffffffffffffffffffffffffffffff1673ffffffffffffffffffffffffffffffffffffffff1681526020019081526020016000206000016000828254610e4391906126b9565b9250508190555082600260008473ffffffffffffffffffffffffffffffffffffffff1673ffffffffffffffffffffffffffffffffffffffff1681526020019081526020016000206001016000828254610e9c91906126ed565b925050819055506001600260008473ffffffffffffffffffffffffffffffffffffffff1673ffffffffffffffffffffffffffffffffffffffff16815260200190815260200160002060020160006101000a81548160ff021916908315150217905550610f4a82600260008573ffffffffffffffffffffffffffffffffffffffff1673ffffffffffffffffffffffffffffffffffffffff16815260200190815260200160002060000154611b2e565b8173ffffffffffffffffffffffffffffffffffffffff167f567e350b684cadcffd08a11654f26987d7d19424ceac1209d7b56a5064866a03600260008573ffffffffffffffffffffffffffffffffffffffff1673ffffffffffffffffffffffffffffffffffffffff16815260200190815260200160002060000154600260008673ffffffffffffffffffffffffffffffffffffffff1673ffffffffffffffffffffffffffffffffffffffff16815260200190815260200160002060010154846040516110189392919061216f565b60405180910390a250505050565b60008054906101000a900473ffffffffffffffffffffffffffffffffffffffff1681565b600080600080600062278d0060195461106391906126b9565b905060008142101561108057428261107b91906126ed565b611083565b60005b905060185460195483839550955095509550505090919293565b606481565b61271081565b60008054906101000a900473ffffffffffffffffffffffffffffffffffffffff1673ffffffffffffffffffffffffffffffffffffffff163373ffffffffffffffffffffffffffffffffffffffff16148061114f5750600160009054906101000a900473ffffffffffffffffffffffffffffffffffffffff1673ffffffffffffffffffffffffffffffffffffffff163373ffffffffffffffffffffffffffffffffffffffff16145b61118e576040517f08c379a000000000000000000000000000000000000000000000000000000000815260040161118590612494565b60405180910390fd5b60006017600060185481526020019081526020016000209050601954816000018190555042816001018190555060005b600a81101561129057600381600a81106111db576111da612721565b5b0160009054906101000a900473ffffffffffffffffffffffffffffffffffffffff168260020182600a811061121357611212612721565b5b0160006101000a81548173ffffffffffffffffffffffffffffffffffffffff021916908373ffffffffffffffffffffffffffffffffffffffff160217905550600d81600a811061126657611265612721565b5b015482600c0182600a811061127e5761127d612721565b5b018190555080806001019150506111be565b50601860008154809291906112a490612750565b9190505550426019819055507f9de3c2ee2e5a2666ea379e937016e2ff9d8107565a7c1add68ade5560ed1e1f860185460195462278d006019546112e891906126b9565b6040516112f793929190612798565b60405180910390a150565b600d81600a811061131257600080fd5b016000915090505481565b60008060009054906101000a900473ffffffffffffffffffffffffffffffffffffffff1673ffffffffffffffffffffffffffffffffffffffff163373ffffffffffffffffffffffffffffffffffffffff1614806113c75750600160009054906101000a900473ffffffffffffffffffffffffffffffffffffffff1673ffffffffffffffffffffffffffffffffffffffff163373ffffffffffffffffffffffffffffffffffffffff16145b611406576040517f08c379a00000000000000000000000000000000000000000000000000000000081526004016113fd90612494565b60405180910390fd5b612710600260008473ffffffffffffffffffffffffffffffffffffffff1673ffffffffffffffffffffffffffffffffffffffff1681526020019081526020016000206000015461145691906127fe565b9050919050565b6000600260008373ffffffffffffffffffffffffffffffffffffffff1673ffffffffffffffffffffffffffffffffffffffff16815260200190815260200160002060020160009054906101000a900460ff1680156114fe5750612710600260008473ffffffffffffffffffffffffffffffffffffffff1673ffffffffffffffffffffffffffffffffffffffff16815260200190815260200160002060000154115b61150957600061150c565b60015b9050919050565b60608060008054906101000a900473ffffffffffffffffffffffffffffffffffffffff1673ffffffffffffffffffffffffffffffffffffffff163373ffffffffffffffffffffffffffffffffffffffff1614806115bd5750600160009054906101000a900473ffffffffffffffffffffffffffffffffffffffff1673ffffffffffffffffffffffffffffffffffffffff163373ffffffffffffffffffffffffffffffffffffffff16145b6115fc576040517f08c379a00000000000000000000000000000000000000000000000000000000081526004016115f390612494565b60405180910390fd5b6000601a8054905090508067ffffffffffffffff8111156116205761161f61282f565b5b60405190808252806020026020018201604052801561164e5781602001602082028036833780820191505090505b5092508067ffffffffffffffff81111561166b5761166a61282f565b5b6040519080825280602002602001820160405280156116995781602001602082028036833780820191505090505b50915060005b818110156117f5576116ee601a82815481106116be576116bd612721565b5b9060005260206000200160009054906101000a900473ffffffffffffffffffffffffffffffffffffffff1661145d565b156117e8576000601a828154811061170957611708612721565b5b9060005260206000200160009054906101000a900473ffffffffffffffffffffffffffffffffffffffff1690508085838151811061174a57611749612721565b5b602002602001019073ffffffffffffffffffffffffffffffffffffffff16908173ffffffffffffffffffffffffffffffffffffffff1681525050600260008273ffffffffffffffffffffffffffffffffffffffff1673ffffffffffffffffffffffffffffffffffffffff168152602001908152602001600020600001548483815181106117da576117d9612721565b5b602002602001018181525050505b808060010191505061169f565b50509091565b60008054906101000a900473ffffffffffffffffffffffffffffffffffffffff1673ffffffffffffffffffffffffffffffffffffffff163373ffffffffffffffffffffffffffffffffffffffff1614806118a25750600160009054906101000a900473ffffffffffffffffffffffffffffffffffffffff1673ffffffffffffffffffffffffffffffffffffffff163373ffffffffffffffffffffffffffffffffffffffff16145b6118e1576040517f08c379a00000000000000000000000000000000000000000000000000000000081526004016118d890612494565b60405180910390fd5b600073ffffffffffffffffffffffffffffffffffffffff168173ffffffffffffffffffffffffffffffffffffffff1603611950576040517f08c379a0000000000000000000000000000000000000000000000000000000008152600401611947906128aa565b60405180910390fd5b8073ffffffffffffffffffffffffffffffffffffffff1660008054906101000a900473ffffffffffffffffffffffffffffffffffffffff1673ffffffffffffffffffffffffffffffffffffffff167f8be0079c531659141344cd1fd0a4f28419497f9722a3daafe3b4186f6b6457e060405160405180910390a3806000806101000a81548173ffffffffffffffffffffffffffffffffffffffff021916908373ffffffffffffffffffffffffffffffffffffffff16021790555050565b678ac7230489e800003414611a57576040517f08c379a0000000000000000000000000000000000000000000000000000000008152600401611a4e90612916565b60405180910390fd5b6064600260003373ffffffffffffffffffffffffffffffffffffffff1673ffffffffffffffffffffffffffffffffffffffff1681526020019081526020016000206001016000828254611aaa91906126b9565b925050819055503373ffffffffffffffffffffffffffffffffffffffff167f81a735e54eb3172e378aa563cbeef3543b29005a8b4e01bcbe890100eb407f636064604051611af8919061210e565b60405180910390a2565b60185481565b600160009054906101000a900473ffffffffffffffffffffffffffffffffffffffff1681565b6000600a905060005b600a811015611c68578373ffffffffffffffffffffffffffffffffffffffff16600382600a8110611b6b57611b6a612721565b5b0160009054906101000a900473ffffffffffffffffffffffffffffffffffffffff1673ffffffffffffffffffffffffffffffffffffffff1603611bca5782600d82600a8110611bbd57611bbc612721565b5b0181905550809150611c68565b82600d82600a8110611bdf57611bde612721565b5b01541080611c4e5750600073ffffffffffffffffffffffffffffffffffffffff16600382600a8110611c1457611c13612721565b5b0160009054906101000a900473ffffffffffffffffffffffffffffffffffffffff1673ffffffffffffffffffffffffffffffffffffffff16145b15611c5b57809150611c68565b8080600101915050611b37565b50600a811015611e24576000600990505b81811115611d64576003600182611c9091906126ed565b600a8110611ca157611ca0612721565b5b0160009054906101000a900473ffffffffffffffffffffffffffffffffffffffff16600382600a8110611cd757611cd6612721565b5b0160006101000a81548173ffffffffffffffffffffffffffffffffffffffff021916908373ffffffffffffffffffffffffffffffffffffffff160217905550600d600182611d2591906126ed565b600a8110611d3657611d35612721565b5b0154600d82600a8110611d4c57611d4b612721565b5b01819055508080611d5c90612936565b915050611c79565b5082600382600a8110611d7a57611d79612721565b5b0160006101000a81548173ffffffffffffffffffffffffffffffffffffffff021916908373ffffffffffffffffffffffffffffffffffffffff16021790555081600d82600a8110611dce57611dcd612721565b5b01819055508273ffffffffffffffffffffffffffffffffffffffff167f5c874adf9d1c93ab636130bb7e727993f1d6a3d33d1ffd925556815d0eec23088383604051611e1b9291906121d0565b60405180910390a25b505050565b604051806101400160405280600a90602082028036833780820191505090505090565b604051806101400160405280600a90602082028036833780820191505090505090565b600080fd5b600073ffffffffffffffffffffffffffffffffffffffff82169050919050565b6000611e9f82611e74565b9050919050565b611eaf81611e94565b8114611eba57600080fd5b50565b600081359050611ecc81611ea6565b92915050565b600060208284031215611ee857611ee7611e6f565b5b6000611ef684828501611ebd565b91505092915050565b6000819050919050565b611f1281611eff565b8114611f1d57600080fd5b50565b600081359050611f2f81611f09565b92915050565b600060208284031215611f4b57611f4a611e6f565b5b6000611f5984828501611f20565b91505092915050565b611f6b81611eff565b82525050565b6000600a9050919050565b600081905092915050565b6000819050919050565b611f9a81611e94565b82525050565b6000611fac8383611f91565b60208301905092915050565b6000602082019050919050565b611fce81611f71565b611fd88184611f7c565b9250611fe382611f87565b8060005b83811015612014578151611ffb8782611fa0565b965061200683611fb8565b925050600181019050611fe7565b505050505050565b6000600a9050919050565b600081905092915050565b6000819050919050565b61204581611eff565b82525050565b6000612057838361203c565b60208301905092915050565b6000602082019050919050565b6120798161201c565b6120838184612027565b925061208e82612032565b8060005b838110156120bf5781516120a6878261204b565b96506120b183612063565b925050600181019050612092565b505050505050565b60006102c0820190506120dd6000830187611f62565b6120ea6020830186611f62565b6120f76040830185611fc5565b612105610180830184612070565b95945050505050565b60006020820190506121236000830184611f62565b92915050565b60006102808201905061213f6000830185611fc5565b61214d610140830184612070565b9392505050565b60008115159050919050565b61216981612154565b82525050565b60006060820190506121846000830186611f62565b6121916020830185611f62565b61219e6040830184612160565b949350505050565b6121af81611e94565b82525050565b60006020820190506121ca60008301846121a6565b92915050565b60006040820190506121e56000830185611f62565b6121f26020830184611f62565b9392505050565b60008060006060848603121561221257612211611e6f565b5b600061222086828701611f20565b935050602061223186828701611f20565b925050604061224286828701611ebd565b9150509250925092565b60006080820190506122616000830187611f62565b61226e6020830186611f62565b61227b6040830185611f62565b6122886060830184611f62565b95945050505050565b60006020820190506122a66000830184612160565b92915050565b600081519050919050565b600082825260208201905092915050565b6000819050602082019050919050565b6000602082019050919050565b60006122f0826122ac565b6122fa81856122b7565b9350612305836122c8565b8060005b8381101561233657815161231d8882611fa0565b9750612328836122d8565b925050600181019050612309565b5085935050505092915050565b600081519050919050565b600082825260208201905092915050565b6000819050602082019050919050565b6000602082019050919050565b600061238782612343565b612391818561234e565b935061239c8361235f565b8060005b838110156123cd5781516123b4888261204b565b97506123bf8361236f565b9250506001810190506123a0565b5085935050505092915050565b600060408201905081810360008301526123f481856122e5565b90508181036020830152612408818461237c565b90509392505050565b600082825260208201905092915050565b7f4f6e6c79206f776e65722f7365727665722063616e2063616c6c20746869732060008201527f66756e6374696f6e000000000000000000000000000000000000000000000000602082015250565b600061247e602883612411565b915061248982612422565b604082019050919050565b600060208201905081810360008301526124ad81612471565b9050919050565b7f4e6577207365727665722063616e6e6f74206265207a65726f2061646472657360008201527f7300000000000000000000000000000000000000000000000000000000000000602082015250565b6000612510602183612411565b915061251b826124b4565b604082019050919050565b6000602082019050818103600083015261253f81612503565b9050919050565b7f496e76616c696420746f75726e616d656e742049440000000000000000000000600082015250565b600061257c601583612411565b915061258782612546565b602082019050919050565b600060208201905081810360008301526125ab8161256f565b9050919050565b7f506f696e7473206d7573742062652067726561746572207468616e2030000000600082015250565b60006125e8601d83612411565b91506125f3826125b2565b602082019050919050565b60006020820190508181036000830152612617816125db565b9050919050565b7f4e6f7420656e6f75676820626f6f737465722062616c6c730000000000000000600082015250565b6000612654601883612411565b915061265f8261261e565b602082019050919050565b6000602082019050818103600083015261268381612647565b9050919050565b7f4e487b7100000000000000000000000000000000000000000000000000000000600052601160045260246000fd5b60006126c482611eff565b91506126cf83611eff565b92508282019050808211156126e7576126e661268a565b5b92915050565b60006126f882611eff565b915061270383611eff565b925082820390508181111561271b5761271a61268a565b5b92915050565b7f4e487b7100000000000000000000000000000000000000000000000000000000600052603260045260246000fd5b600061275b82611eff565b91507fffffffffffffffffffffffffffffffffffffffffffffffffffffffffffffffff820361278d5761278c61268a565b5b600182019050919050565b60006060820190506127ad6000830186611f62565b6127ba6020830185611f62565b6127c76040830184611f62565b949350505050565b7f4e487b7100000000000000000000000000000000000000000000000000000000600052601260045260246000fd5b600061280982611eff565b915061281483611eff565b925082612824576128236127cf565b5b828204905092915050565b7f4e487b7100000000000000000000000000000000000000000000000000000000600052604160045260246000fd5b7f4e6577206f776e65722063616e6e6f74206265207a65726f2061646472657373600082015250565b6000612894602083612411565b915061289f8261285e565b602082019050919050565b600060208201905081810360008301526128c381612887565b9050919050565b7f496e636f7272656374207061796d656e7420616d6f756e740000000000000000600082015250565b6000612900601883612411565b915061290b826128ca565b602082019050919050565b6000602082019050818103600083015261292f816128f3565b9050919050565b600061294182611eff565b9150600082036129545761295361268a565b5b60018203905091905056fea26469706673582212205f9c96f5418a1f795347247c6e88c69903c46a5e6cad1f2701a2442adb35399c64736f6c634300081a0033",
  "linkReferences": {},
  "deployedLinkReferences": {}
}